{
  "contractName": "CeloBet",
  "abi": [
    {
      "inputs": [],
      "stateMutability": "nonpayable",
      "type": "constructor"
    },
    {
      "anonymous": false,
      "inputs": [
        {
          "indexed": true,
          "internalType": "address",
          "name": "sender",
          "type": "address"
        },
        {
          "indexed": false,
          "internalType": "uint256",
          "name": "amount",
          "type": "uint256"
        }
      ],
      "name": "Received",
      "type": "event"
    },
    {
      "anonymous": false,
      "inputs": [
        {
          "indexed": false,
          "internalType": "uint256",
          "name": "id",
          "type": "uint256"
        },
        {
          "indexed": false,
          "internalType": "uint256",
          "name": "bet",
          "type": "uint256"
        },
        {
          "indexed": false,
          "internalType": "uint256",
          "name": "randomSeed",
          "type": "uint256"
        },
        {
          "indexed": false,
          "internalType": "uint256",
          "name": "amount",
          "type": "uint256"
        },
        {
          "indexed": false,
          "internalType": "address",
          "name": "player",
          "type": "address"
        },
        {
          "indexed": false,
          "internalType": "uint256",
          "name": "winAmount",
          "type": "uint256"
        },
        {
          "indexed": false,
          "internalType": "uint256",
          "name": "randomResult",
          "type": "uint256"
        },
        {
          "indexed": false,
          "internalType": "uint256",
          "name": "time",
          "type": "uint256"
        }
      ],
      "name": "Result",
      "type": "event"
    },
    {
      "anonymous": false,
      "inputs": [
        {
          "indexed": false,
          "internalType": "address",
          "name": "admin",
          "type": "address"
        },
        {
          "indexed": false,
          "internalType": "uint256",
          "name": "amount",
          "type": "uint256"
        }
      ],
      "name": "Withdraw",
      "type": "event"
    },
    {
      "inputs": [],
      "name": "admin",
      "outputs": [
        {
          "internalType": "address payable",
          "name": "",
          "type": "address"
        }
      ],
      "stateMutability": "view",
      "type": "function",
      "constant": true
    },
    {
      "inputs": [],
      "name": "gameId",
      "outputs": [
        {
          "internalType": "uint256",
          "name": "",
          "type": "uint256"
        }
      ],
      "stateMutability": "view",
      "type": "function",
      "constant": true
    },
    {
      "inputs": [
        {
          "internalType": "uint256",
          "name": "",
          "type": "uint256"
        }
      ],
      "name": "games",
      "outputs": [
        {
          "internalType": "uint256",
          "name": "id",
          "type": "uint256"
        },
        {
          "internalType": "uint256",
          "name": "bet",
          "type": "uint256"
        },
        {
          "internalType": "uint256",
          "name": "seed",
          "type": "uint256"
        },
        {
          "internalType": "uint256",
          "name": "amount",
          "type": "uint256"
        },
        {
          "internalType": "address payable",
          "name": "player",
          "type": "address"
        }
      ],
      "stateMutability": "view",
      "type": "function",
      "constant": true
    },
    {
      "inputs": [],
      "name": "lastGameId",
      "outputs": [
        {
          "internalType": "uint256",
          "name": "",
          "type": "uint256"
        }
      ],
      "stateMutability": "view",
      "type": "function",
      "constant": true
    },
    {
      "inputs": [],
      "name": "price",
      "outputs": [
        {
          "internalType": "uint256",
          "name": "",
          "type": "uint256"
        }
      ],
      "stateMutability": "view",
      "type": "function",
      "constant": true
    },
    {
      "inputs": [],
      "name": "randomResult",
      "outputs": [
        {
          "internalType": "uint256",
          "name": "",
          "type": "uint256"
        }
      ],
      "stateMutability": "view",
      "type": "function",
      "constant": true
    },
    {
      "stateMutability": "payable",
      "type": "receive",
      "payable": true
    },
    {
      "inputs": [
        {
          "internalType": "uint256",
          "name": "bet",
          "type": "uint256"
        },
        {
          "internalType": "uint256",
          "name": "seed",
          "type": "uint256"
        }
      ],
      "name": "game",
      "outputs": [
        {
          "internalType": "bool",
          "name": "",
          "type": "bool"
        }
      ],
      "stateMutability": "payable",
      "type": "function",
      "payable": true
    },
    {
      "inputs": [
        {
          "internalType": "uint256",
          "name": "Seed",
          "type": "uint256"
        }
      ],
      "name": "callrandomResult",
      "outputs": [],
      "stateMutability": "nonpayable",
      "type": "function"
    },
    {
      "inputs": [
        {
          "internalType": "uint256",
          "name": "random",
          "type": "uint256"
        }
      ],
      "name": "verdict",
      "outputs": [],
      "stateMutability": "payable",
      "type": "function",
      "payable": true
    },
    {
      "inputs": [
        {
          "internalType": "uint256",
          "name": "amount",
          "type": "uint256"
        }
      ],
      "name": "withdraw",
      "outputs": [],
      "stateMutability": "payable",
      "type": "function",
      "payable": true
    }
  ],
  "bytecode": "0x608060405234801561001057600080fd5b5033600360006101000a81548173ffffffffffffffffffffffffffffffffffffffff021916908373ffffffffffffffffffffffffffffffffffffffff160217905550610b26806100616000396000f3fe6080604052600436106100955760003560e01c806383f818b41161005957806383f818b414610245578063a035b1fe14610295578063d3dc1fdf146102c0578063d7c81b55146102ee578063f851a44014610319576100ea565b8063117a5b90146100ef5780632e1a7d4d146101865780633ee9d648146101b457806342403298146101df57806342619f661461021a576100ea565b366100ea573373ffffffffffffffffffffffffffffffffffffffff167f88a5966d370b9919b20f3e2c13ff65706f196a4e32cc2c12bf57088f88525874346040518082815260200191505060405180910390a2005b600080fd5b3480156100fb57600080fd5b506101286004803603602081101561011257600080fd5b8101908080359060200190929190505050610370565b604051808681526020018581526020018481526020018381526020018273ffffffffffffffffffffffffffffffffffffffff1673ffffffffffffffffffffffffffffffffffffffff1681526020019550505050505060405180910390f35b6101b26004803603602081101561019c57600080fd5b81019080803590602001909291905050506103c6565b005b3480156101c057600080fd5b506101c96105db565b6040518082815260200191505060405180910390f35b3480156101eb57600080fd5b506102186004803603602081101561020257600080fd5b81019080803590602001909291905050506105e1565b005b34801561022657600080fd5b5061022f610632565b6040518082815260200191505060405180910390f35b61027b6004803603604081101561025b57600080fd5b810190808035906020019092919080359060200190929190505050610638565b604051808215151515815260200191505060405180910390f35b3480156102a157600080fd5b506102aa61080b565b6040518082815260200191505060405180910390f35b6102ec600480360360208110156102d657600080fd5b8101908080359060200190929190505050610811565b005b3480156102fa57600080fd5b50610303610a9d565b6040518082815260200191505060405180910390f35b34801561032557600080fd5b5061032e610aa3565b604051808273ffffffffffffffffffffffffffffffffffffffff1673ffffffffffffffffffffffffffffffffffffffff16815260200191505060405180910390f35b60056020528060005260406000206000915090508060000154908060010154908060020154908060030154908060040160009054906101000a900473ffffffffffffffffffffffffffffffffffffffff16905085565b600360009054906101000a900473ffffffffffffffffffffffffffffffffffffffff1673ffffffffffffffffffffffffffffffffffffffff163373ffffffffffffffffffffffffffffffffffffffff1614610489576040517f08c379a00000000000000000000000000000000000000000000000000000000081526004018080602001828103825260178152602001807f63616c6c6572206973206e6f74207468652061646d696e00000000000000000081525060200191505060405180910390fd5b804710156104e2576040517f08c379a0000000000000000000000000000000000000000000000000000000008152600401808060200182810382526027815260200180610aca6027913960400191505060405180910390fd5b600360009054906101000a900473ffffffffffffffffffffffffffffffffffffffff1673ffffffffffffffffffffffffffffffffffffffff166108fc829081150290604051600060405180830381858888f1935050505015801561054a573d6000803e3d6000fd5b507f884edad9ce6fa2440d8a54cc123490eb96d2768479d49ff9c7366125a9424364600360009054906101000a900473ffffffffffffffffffffffffffffffffffffffff1682604051808373ffffffffffffffffffffffffffffffffffffffff1673ffffffffffffffffffffffffffffffffffffffff1681526020018281526020019250505060405180910390a150565b60025481565b4243824303406040516020018084815260200183815260200182815260200193505050506040516020818303038152906040528051906020012060001c60048190555061062f600454610811565b50565b60045481565b600060018311156106b1576040517f08c379a000000000000000000000000000000000000000000000000000000000815260040180806020018281038252601a8152602001807f4572726f722c20616363657074206f6e6c79203020616e64203100000000000081525060200191505060405180910390fd5b34471015610727576040517f08c379a00000000000000000000000000000000000000000000000000000000081526004018080602001828103825260208152602001807f4572726f722c20696e737566666963656e74207661756c742062616c616e636581525060200191505060405180910390fd5b6040518060a0016040528060015481526020018481526020018381526020013481526020013373ffffffffffffffffffffffffffffffffffffffff168152506005600060015481526020019081526020016000206000820151816000015560208201518160010155604082015181600201556060820151816003015560808201518160040160006101000a81548173ffffffffffffffffffffffffffffffffffffffff021916908373ffffffffffffffffffffffffffffffffffffffff1602179055509050506001805401600181905550610801826105e1565b6001905092915050565b60005481565b600060025490505b600154811015610a905760008090507f8000000000000000000000000000000000000000000000000000000000000000831015801561086e575060016005600084815260200190815260200160002060010154145b806108ba57507f8000000000000000000000000000000000000000000000000000000000000000831080156108b9575060006005600084815260200190815260200160002060010154145b5b1561095957600260056000848152602001908152602001600020600301540290506005600083815260200190815260200160002060040160009054906101000a900473ffffffffffffffffffffffffffffffffffffffff1673ffffffffffffffffffffffffffffffffffffffff166108fc829081150290604051600060405180830381858888f19350505050158015610957573d6000803e3d6000fd5b505b7f42454dd863e57d7fc7c2c8c6a3d1385748e0c2c5224b37d27cad5fb088ddf47b60056000848152602001908152602001600020600001546005600085815260200190815260200160002060010154600560008681526020019081526020016000206002015460056000878152602001908152602001600020600301546005600088815260200190815260200160002060040160009054906101000a900473ffffffffffffffffffffffffffffffffffffffff16868942604051808981526020018881526020018781526020018681526020018573ffffffffffffffffffffffffffffffffffffffff1673ffffffffffffffffffffffffffffffffffffffff1681526020018481526020018381526020018281526020019850505050505050505060405180910390a1508080600101915050610819565b5060015460028190555050565b60015481565b600360009054906101000a900473ffffffffffffffffffffffffffffffffffffffff168156fe4572726f722c20636f6e74726163742068617320696e737566666963656e742062616c616e6365a26469706673582212206c6d7a4b57af208e1563c42e50a3619b7971965aea0320f0812bf716beb8fcd864736f6c634300060b0033",
  "immutableReferences": {},
  "source": "// SPDX-License-Identifier: Apache-2.0\npragma solidity 0.6.11;\n\ncontract CeloBet {\n    uint256 public price;\n    uint256 public gameId;\n    uint256 public lastGameId;\n    address payable public admin;\n    //declaring 50% chance, (0.5*(uint256+1))\n    uint256 constant half = 57896044618658097711785492504343953926634992332820282019728792003956564819968;\n    uint256 public randomResult;\n    mapping(uint256 => Game) public games;\n    \n    event Withdraw(address admin, uint256 amount);\n    event Received(address indexed sender, uint256 amount);\n    event Result(uint256 id, uint256 bet, uint256 randomSeed, uint256 amount, address player, uint256 winAmount, uint256 randomResult, uint256 time);\n    \n    struct Game{uint256 id;uint256 bet;uint256 seed;uint256 amount;address payable player;}\n    \n    modifier onlyAdmin() {\n        require(msg.sender == admin, 'caller is not the admin');\n        _;\n        \n    }\n\n    constructor() public {\n        admin = msg.sender;\n    }\n     /* Allows this contract to receive payments */\n    receive() external payable {\n        emit Received(msg.sender, msg.value);\n    }\n    \n      /**\n       * Taking bets function.\n       * By winning, user 2x his betAmount.\n       * Chances to win and lose are the same.\n       */\n     function game(uint256 bet, uint256 seed) public payable returns (bool) {\n\n        //bet=0 is low, refers to 1-3  dice values\n        //bet=1 is high, refers to 4-6 dice values\n        require(bet<=1, 'Error, accept only 0 and 1');\n    \n        //vault balance must be at least equal to msg.value\n        require(address(this).balance>=msg.value, 'Error, insufficent vault balance');\n        \n        //each bet has unique id\n        games[gameId] = Game(gameId, bet, seed, msg.value, msg.sender);\n        \n        //increase gameId for the next bet\n        gameId = gameId+1;\n    \n        callrandomResult(seed);\n        return true;\n     }\n\n    function callrandomResult(uint256 Seed) public {\n        randomResult = uint256(keccak256(abi.encode(now, block.number, blockhash(block.number - Seed))));\n\n        //send final random value to the verdict();\n        verdict(randomResult);\n    }\n    /**\n   * Send rewards to the winners.\n   */\n    function verdict(uint256 random) public payable {\n        //check bets from latest betting round, one by one\n        for(uint256 i=lastGameId; i<gameId; i++){\n            //reset winAmount for current user\n            uint256 winAmount = 0;\n            \n            //if user wins, then receives 2x of their betting amount\n            if((random>=half && games[i].bet==1) || (random<half && games[i].bet==0)){\n            winAmount = games[i].amount*2;\n            games[i].player.transfer(winAmount);\n            }\n            emit Result(games[i].id, games[i].bet, games[i].seed, games[i].amount, games[i].player, winAmount, random, block.timestamp);\n        }\n        //save current gameId to lastGameId for the next betting round\n        lastGameId = gameId;\n    }\n  \n   \n    function withdraw(uint256 amount) external payable onlyAdmin {\n        require(address(this).balance>=amount, 'Error, contract has insufficent balance');\n        admin.transfer(amount);\n        emit Withdraw(admin, amount);\n  }\n}",
  "sourcePath": "C:/Users/aziz/Desktop/NFT token/celo-dappkit-master/contracts/HarmoGame.sol",
  "compiler": {
    "name": "solc",
    "version": "0.6.11+commit.5ef660b1.Emscripten.clang"
  },
  "schemaVersion": "3.3.2",
  "updatedAt": "2021-03-25T17:20:27.095Z",
  "networkType": "ethereum",
  "devdoc": {
    "kind": "dev",
    "methods": {},
    "version": 1
  },
  "userdoc": {
    "kind": "user",
    "methods": {
      "game(uint256,uint256)": {
        "notice": "Taking bets function. By winning, user 2x his betAmount. Chances to win and lose are the same."
      },
      "verdict(uint256)": {
        "notice": "Send rewards to the winners."
      }
    },
    "version": 1
  }
}